:100000000C9437000C947E010C947E010C947E01BC
:100010000C947E010C947E010C947E010C947E0164
:100020000C947E010C947E010C947E010C947E0154
:100030000C947E010C947E010C947E010C947E0144
:100040000C947E010C947E010C947E010C947E0134
:100050000C947E010C947E010C947E010C947E0124
:100060000C947E010C947E01010001048000112497
:100070001FBECFEFD8E0DEBFCDBFE8E6F0E040E046
:1000800017C0B591A59135912591059107FD0CC03B
:1000900095918591EF01F92FE82F05900D92A21708
:1000A000B307D9F7FE0104C01D92A217B307E1F709
:1000B000ED36F40731F70E9461000C946B01F8945F
:0200C000FFCF70
:1000C2008EE384B981E085B90F2EF0E6CF2EFAEEE9
:1000D200DF2EE12CF12CF02D0F2E812CFDE79F2E2F
:1000E200A12CB12CF02D8FE99FE00197F1F700C010
:1000F20000008091000190910101A0910201B09154
:100102000301BC01CD016F5F7F4F8F4F9F4FA7014E
:1001120096010E945401362F272F462F572F682F02
:10012200792F309300012093010180930201909373
:10013200030118990FC041159DE759076105710523
:100142004CF48092000190920101A0920201B092BF
:10015200030106C0403124EA52076105710534F4F7
:100162002B9A2D9A2C982A982998BDCF483C8FEA31
:1001720058076105710534F42A9A2D9A2B982C9808
:100182002998B1CF483A9EED59076105710534F4BB
:10019200299A2C9A2B982A982D98A5CF41365A4EF7
:1001A200610571050CF09FCF299A2D9A2C982A98F7
:1001B2002B988FEF99E628E1815090402040E1F79B
:1001C20000C00000299A2D982C982A982B988FEF1E
:1001D20099E628E1815090402040E1F700C00000FC
:1001E200299A2D9A2C982A982B988FEF99E628E134
:1001F200815090402040E1F700C00000299A2D98DC
:100202002C982A982B988FEF99E628E181509040FC
:100212002040E1F700C00000299A2D9A2C982A98D4
:100222002B988FEF99E628E1815090402040E1F72A
:1002320000C00000299A2D982C982A982B988FEFAD
:1002420099E628E1815090402040E1F700C000008B
:10025200109200011092010110920201109203010A
:0202620042CF89
:10026400A1E21A2EAA1BBB1BFD010DC0AA1FBB1FB6
:10027400EE1FFF1FA217B307E407F50720F0A21B28
:10028400B30BE40BF50B661F771F881F991F1A9495
:1002940069F760957095809590959B01AC01BD01BF
:0402A400CF010895E9
:1002A800052E97FB1EF400940E94760157FD07D097
:1002B8000E94320107FC03D04EF40C94760150954D
:0E02C8004095309521953F4F4F4F5F4F089561
:1002D600EC010E9483010E948201CE010E948401EA
:0602E600CE010E94800120
:1002EC0090958095709561957F4F8F4F9F4F089596
:0402FC000C9400005E
:040300000E945F00F8
:0203040008955A
:02030600089558
:02030800089556
:00000001FF
